{
  "abi": [
    {
      "type": "constructor",
      "inputs": [
        {
          "name": "gameResourcesAddress",
          "type": "address",
          "internalType": "address"
        }
      ],
      "stateMutability": "nonpayable"
    },
    {
      "type": "function",
      "name": "DEFAULT_ADMIN_ROLE",
      "inputs": [],
      "outputs": [
        {
          "name": "",
          "type": "bytes32",
          "internalType": "bytes32"
        }
      ],
      "stateMutability": "view"
    },
    {
      "type": "function",
      "name": "FEE_DENOMINATOR",
      "inputs": [],
      "outputs": [
        {
          "name": "",
          "type": "uint256",
          "internalType": "uint256"
        }
      ],
      "stateMutability": "view"
    },
    {
      "type": "function",
      "name": "FEE_NUMERATOR",
      "inputs": [],
      "outputs": [
        {
          "name": "",
          "type": "uint256",
          "internalType": "uint256"
        }
      ],
      "stateMutability": "view"
    },
    {
      "type": "function",
      "name": "MINIMUM_LIQUIDITY",
      "inputs": [],
      "outputs": [
        {
          "name": "",
          "type": "uint256",
          "internalType": "uint256"
        }
      ],
      "stateMutability": "view"
    },
    {
      "type": "function",
      "name": "PAUSER_ROLE",
      "inputs": [],
      "outputs": [
        {
          "name": "",
          "type": "bytes32",
          "internalType": "bytes32"
        }
      ],
      "stateMutability": "view"
    },
    {
      "type": "function",
      "name": "addLiquidity",
      "inputs": [
        {
          "name": "firstResourceId",
          "type": "uint256",
          "internalType": "uint256"
        },
        {
          "name": "secondResourceId",
          "type": "uint256",
          "internalType": "uint256"
        },
        {
          "name": "firstResourceAmountDesired",
          "type": "uint256",
          "internalType": "uint256"
        },
        {
          "name": "secondResourceAmountDesired",
          "type": "uint256",
          "internalType": "uint256"
        },
        {
          "name": "firstResourceAmountMinimum",
          "type": "uint256",
          "internalType": "uint256"
        },
        {
          "name": "secondResourceAmountMinimum",
          "type": "uint256",
          "internalType": "uint256"
        },
        {
          "name": "liquidityRecipient",
          "type": "address",
          "internalType": "address"
        },
        {
          "name": "transactionDeadline",
          "type": "uint256",
          "internalType": "uint256"
        }
      ],
      "outputs": [
        {
          "name": "firstResourceAmountDeposited",
          "type": "uint256",
          "internalType": "uint256"
        },
        {
          "name": "secondResourceAmountDeposited",
          "type": "uint256",
          "internalType": "uint256"
        },
        {
          "name": "liquidityTokensMinted",
          "type": "uint256",
          "internalType": "uint256"
        }
      ],
      "stateMutability": "nonpayable"
    },
    {
      "type": "function",
      "name": "gameResources",
      "inputs": [],
      "outputs": [
        {
          "name": "",
          "type": "address",
          "internalType": "contract IERC1155"
        }
      ],
      "stateMutability": "view"
    },
    {
      "type": "function",
      "name": "getPoolReserves",
      "inputs": [
        {
          "name": "firstResourceId",
          "type": "uint256",
          "internalType": "uint256"
        },
        {
          "name": "secondResourceId",
          "type": "uint256",
          "internalType": "uint256"
        }
      ],
      "outputs": [
        {
          "name": "firstReserve",
          "type": "uint256",
          "internalType": "uint256"
        },
        {
          "name": "secondReserve",
          "type": "uint256",
          "internalType": "uint256"
        }
      ],
      "stateMutability": "view"
    },
    {
      "type": "function",
      "name": "getRoleAdmin",
      "inputs": [
        {
          "name": "role",
          "type": "bytes32",
          "internalType": "bytes32"
        }
      ],
      "outputs": [
        {
          "name": "",
          "type": "bytes32",
          "internalType": "bytes32"
        }
      ],
      "stateMutability": "view"
    },
    {
      "type": "function",
      "name": "grantRole",
      "inputs": [
        {
          "name": "role",
          "type": "bytes32",
          "internalType": "bytes32"
        },
        {
          "name": "account",
          "type": "address",
          "internalType": "address"
        }
      ],
      "outputs": [],
      "stateMutability": "nonpayable"
    },
    {
      "type": "function",
      "name": "hasRole",
      "inputs": [
        {
          "name": "role",
          "type": "bytes32",
          "internalType": "bytes32"
        },
        {
          "name": "account",
          "type": "address",
          "internalType": "address"
        }
      ],
      "outputs": [
        {
          "name": "",
          "type": "bool",
          "internalType": "bool"
        }
      ],
      "stateMutability": "view"
    },
    {
      "type": "function",
      "name": "liquidityBalanceOf",
      "inputs": [
        {
          "name": "poolKey",
          "type": "bytes32",
          "internalType": "bytes32"
        },
        {
          "name": "provider",
          "type": "address",
          "internalType": "address"
        }
      ],
      "outputs": [
        {
          "name": "balance",
          "type": "uint256",
          "internalType": "uint256"
        }
      ],
      "stateMutability": "view"
    },
    {
      "type": "function",
      "name": "onERC1155BatchReceived",
      "inputs": [
        {
          "name": "",
          "type": "address",
          "internalType": "address"
        },
        {
          "name": "",
          "type": "address",
          "internalType": "address"
        },
        {
          "name": "",
          "type": "uint256[]",
          "internalType": "uint256[]"
        },
        {
          "name": "",
          "type": "uint256[]",
          "internalType": "uint256[]"
        },
        {
          "name": "",
          "type": "bytes",
          "internalType": "bytes"
        }
      ],
      "outputs": [
        {
          "name": "",
          "type": "bytes4",
          "internalType": "bytes4"
        }
      ],
      "stateMutability": "pure"
    },
    {
      "type": "function",
      "name": "onERC1155Received",
      "inputs": [
        {
          "name": "",
          "type": "address",
          "internalType": "address"
        },
        {
          "name": "",
          "type": "address",
          "internalType": "address"
        },
        {
          "name": "",
          "type": "uint256",
          "internalType": "uint256"
        },
        {
          "name": "",
          "type": "uint256",
          "internalType": "uint256"
        },
        {
          "name": "",
          "type": "bytes",
          "internalType": "bytes"
        }
      ],
      "outputs": [
        {
          "name": "",
          "type": "bytes4",
          "internalType": "bytes4"
        }
      ],
      "stateMutability": "pure"
    },
    {
      "type": "function",
      "name": "pauseMarketplace",
      "inputs": [],
      "outputs": [],
      "stateMutability": "nonpayable"
    },
    {
      "type": "function",
      "name": "paused",
      "inputs": [],
      "outputs": [
        {
          "name": "",
          "type": "bool",
          "internalType": "bool"
        }
      ],
      "stateMutability": "view"
    },
    {
      "type": "function",
      "name": "removeLiquidity",
      "inputs": [
        {
          "name": "firstResourceId",
          "type": "uint256",
          "internalType": "uint256"
        },
        {
          "name": "secondResourceId",
          "type": "uint256",
          "internalType": "uint256"
        },
        {
          "name": "liquidityTokensToBurn",
          "type": "uint256",
          "internalType": "uint256"
        },
        {
          "name": "firstResourceAmountMinimum",
          "type": "uint256",
          "internalType": "uint256"
        },
        {
          "name": "secondResourceAmountMinimum",
          "type": "uint256",
          "internalType": "uint256"
        },
        {
          "name": "resourceRecipient",
          "type": "address",
          "internalType": "address"
        },
        {
          "name": "transactionDeadline",
          "type": "uint256",
          "internalType": "uint256"
        }
      ],
      "outputs": [
        {
          "name": "firstResourceAmountWithdrawn",
          "type": "uint256",
          "internalType": "uint256"
        },
        {
          "name": "secondResourceAmountWithdrawn",
          "type": "uint256",
          "internalType": "uint256"
        }
      ],
      "stateMutability": "nonpayable"
    },
    {
      "type": "function",
      "name": "renounceRole",
      "inputs": [
        {
          "name": "role",
          "type": "bytes32",
          "internalType": "bytes32"
        },
        {
          "name": "callerConfirmation",
          "type": "address",
          "internalType": "address"
        }
      ],
      "outputs": [],
      "stateMutability": "nonpayable"
    },
    {
      "type": "function",
      "name": "revokeRole",
      "inputs": [
        {
          "name": "role",
          "type": "bytes32",
          "internalType": "bytes32"
        },
        {
          "name": "account",
          "type": "address",
          "internalType": "address"
        }
      ],
      "outputs": [],
      "stateMutability": "nonpayable"
    },
    {
      "type": "function",
      "name": "supportsInterface",
      "inputs": [
        {
          "name": "interfaceId",
          "type": "bytes4",
          "internalType": "bytes4"
        }
      ],
      "outputs": [
        {
          "name": "",
          "type": "bool",
          "internalType": "bool"
        }
      ],
      "stateMutability": "view"
    },
    {
      "type": "function",
      "name": "swapExactInputForOutput",
      "inputs": [
        {
          "name": "inputResourceId",
          "type": "uint256",
          "internalType": "uint256"
        },
        {
          "name": "outputResourceId",
          "type": "uint256",
          "internalType": "uint256"
        },
        {
          "name": "inputResourceAmount",
          "type": "uint256",
          "internalType": "uint256"
        },
        {
          "name": "minimumOutputResourceAmount",
          "type": "uint256",
          "internalType": "uint256"
        },
        {
          "name": "outputRecipient",
          "type": "address",
          "internalType": "address"
        },
        {
          "name": "transactionDeadline",
          "type": "uint256",
          "internalType": "uint256"
        }
      ],
      "outputs": [
        {
          "name": "outputResourceAmount",
          "type": "uint256",
          "internalType": "uint256"
        }
      ],
      "stateMutability": "nonpayable"
    },
    {
      "type": "function",
      "name": "unpauseMarketplace",
      "inputs": [],
      "outputs": [],
      "stateMutability": "nonpayable"
    },
    {
      "type": "event",
      "name": "LiquidityAdded",
      "inputs": [
        {
          "name": "liquidityProvider",
          "type": "address",
          "indexed": true,
          "internalType": "address"
        },
        {
          "name": "firstResourceId",
          "type": "uint256",
          "indexed": false,
          "internalType": "uint256"
        },
        {
          "name": "secondResourceId",
          "type": "uint256",
          "indexed": false,
          "internalType": "uint256"
        },
        {
          "name": "firstResourceAmount",
          "type": "uint256",
          "indexed": false,
          "internalType": "uint256"
        },
        {
          "name": "secondResourceAmount",
          "type": "uint256",
          "indexed": false,
          "internalType": "uint256"
        },
        {
          "name": "liquidityTokensMinted",
          "type": "uint256",
          "indexed": false,
          "internalType": "uint256"
        }
      ],
      "anonymous": false
    },
    {
      "type": "event",
      "name": "LiquidityRemoved",
      "inputs": [
        {
          "name": "liquidityProvider",
          "type": "address",
          "indexed": true,
          "internalType": "address"
        },
        {
          "name": "firstResourceId",
          "type": "uint256",
          "indexed": false,
          "internalType": "uint256"
        },
        {
          "name": "secondResourceId",
          "type": "uint256",
          "indexed": false,
          "internalType": "uint256"
        },
        {
          "name": "firstResourceAmount",
          "type": "uint256",
          "indexed": false,
          "internalType": "uint256"
        },
        {
          "name": "secondResourceAmount",
          "type": "uint256",
          "indexed": false,
          "internalType": "uint256"
        },
        {
          "name": "liquidityTokensBurned",
          "type": "uint256",
          "indexed": false,
          "internalType": "uint256"
        }
      ],
      "anonymous": false
    },
    {
      "type": "event",
      "name": "Paused",
      "inputs": [
        {
          "name": "account",
          "type": "address",
          "indexed": false,
          "internalType": "address"
        }
      ],
      "anonymous": false
    },
    {
      "type": "event",
      "name": "ResourcesSwapped",
      "inputs": [
        {
          "name": "swapInitiator",
          "type": "address",
          "indexed": true,
          "internalType": "address"
        },
        {
          "name": "inputResourceId",
          "type": "uint256",
          "indexed": true,
          "internalType": "uint256"
        },
        {
          "name": "outputResourceId",
          "type": "uint256",
          "indexed": true,
          "internalType": "uint256"
        },
        {
          "name": "inputResourceAmount",
          "type": "uint256",
          "indexed": false,
          "internalType": "uint256"
        },
        {
          "name": "outputResourceAmount",
          "type": "uint256",
          "indexed": false,
          "internalType": "uint256"
        }
      ],
      "anonymous": false
    },
    {
      "type": "event",
      "name": "RoleAdminChanged",
      "inputs": [
        {
          "name": "role",
          "type": "bytes32",
          "indexed": true,
          "internalType": "bytes32"
        },
        {
          "name": "previousAdminRole",
          "type": "bytes32",
          "indexed": true,
          "internalType": "bytes32"
        },
        {
          "name": "newAdminRole",
          "type": "bytes32",
          "indexed": true,
          "internalType": "bytes32"
        }
      ],
      "anonymous": false
    },
    {
      "type": "event",
      "name": "RoleGranted",
      "inputs": [
        {
          "name": "role",
          "type": "bytes32",
          "indexed": true,
          "internalType": "bytes32"
        },
        {
          "name": "account",
          "type": "address",
          "indexed": true,
          "internalType": "address"
        },
        {
          "name": "sender",
          "type": "address",
          "indexed": true,
          "internalType": "address"
        }
      ],
      "anonymous": false
    },
    {
      "type": "event",
      "name": "RoleRevoked",
      "inputs": [
        {
          "name": "role",
          "type": "bytes32",
          "indexed": true,
          "internalType": "bytes32"
        },
        {
          "name": "account",
          "type": "address",
          "indexed": true,
          "internalType": "address"
        },
        {
          "name": "sender",
          "type": "address",
          "indexed": true,
          "internalType": "address"
        }
      ],
      "anonymous": false
    },
    {
      "type": "event",
      "name": "Unpaused",
      "inputs": [
        {
          "name": "account",
          "type": "address",
          "indexed": false,
          "internalType": "address"
        }
      ],
      "anonymous": false
    },
    {
      "type": "error",
      "name": "AccessControlBadConfirmation",
      "inputs": []
    },
    {
      "type": "error",
      "name": "AccessControlUnauthorizedAccount",
      "inputs": [
        {
          "name": "account",
          "type": "address",
          "internalType": "address"
        },
        {
          "name": "neededRole",
          "type": "bytes32",
          "internalType": "bytes32"
        }
      ]
    },
    {
      "type": "error",
      "name": "ConstantProductInvariantViolated",
      "inputs": []
    },
    {
      "type": "error",
      "name": "EnforcedPause",
      "inputs": []
    },
    {
      "type": "error",
      "name": "ExpectedPause",
      "inputs": []
    },
    {
      "type": "error",
      "name": "IdenticalResourceIds",
      "inputs": []
    },
    {
      "type": "error",
      "name": "InsufficientInputAmount",
      "inputs": []
    },
    {
      "type": "error",
      "name": "InsufficientLiquidityBurned",
      "inputs": []
    },
    {
      "type": "error",
      "name": "InsufficientLiquidityMinted",
      "inputs": []
    },
    {
      "type": "error",
      "name": "InsufficientOutputAmount",
      "inputs": []
    },
    {
      "type": "error",
      "name": "PoolDoesNotExist",
      "inputs": []
    },
    {
      "type": "error",
      "name": "ReentrancyGuardReentrantCall",
      "inputs": []
    },
    {
      "type": "error",
      "name": "TransactionDeadlineExpired",
      "inputs": []
    }
  ],
  "bytecode": {
    "object": "0x60a034620000c357601f620015b638819003918201601f19168301916001600160401b03831184841017620000c757808492602094604052833981010312620000c357516001600160a01b03811690819003620000c35760017f9b779b17422d0df92223018b32b4d1fa46e071723d6817e2486d003becc55f00556080526200008833620000db565b5062000094336200014b565b5060405161138a9081620001ec823960805181818161024001528181610502015281816106c00152610a730152f35b5f80fd5b634e487b7160e01b5f52604160045260245ffd5b6001600160a01b03165f8181525f8051602062001596833981519152602052604090205460ff1662000146575f8181525f805160206200159683398151915260205260408120805460ff191660011790553391905f80516020620015768339815191528180a4600190565b505f90565b6001600160a01b03165f8181527ff7c9542c591017a21c74b6f3fab6263c7952fc0aaf9db4c22a2a04ddc7f8674f60205260409020547f65d7a28e3265b37a6474929f336521b332c1681b933f6cb9f3376673440d862a919060ff16620001e557815f525f60205260405f20815f5260205260405f20600160ff1982541617905533915f80516020620015768339815191525f80a4600190565b50505f9056fe6080806040526004361015610012575f80fd5b5f905f3560e01c90816301ffc9a714610e9e5750806321f67fbb14610e35578063248a9ca314610e095780632f2ff15d14610dcd57806336568abe14610d845780633ec6227914610d2c57806341cd47bf14610d105780635c975abb14610cee57806391cfe6f014610c6a57806391d1485414610c22578063a217fddf14610c08578063a58e16d01461093a578063ba9a7a5614610531578063bc197c81146108ad578063c8eb1ac5146105bc578063d3e01f3814610577578063d547741f14610536578063d73792a914610531578063d9bf2002146104ec578063e63ab1e9146104b1578063f23a6e61146104555763ff4bd76114610110575f80fd5b34610452576101003660031901126104525760c4356001600160a01b038116810361044e5761013d61123c565b61014561126b565b60e435421161043c57610193906101606024356004356111e0565b9061017b60a435608435606435604435602435600435611289565b91878a9994969952600260205260408a2095866112a5565b959092600281015480155f146103db57506101b66101b18886610fc6565b611312565b956103e88711156103c957866103e7198101116103b5578892916001916103e71989019860028301558085526003602052604085205f80526020526103e860405f20555b8452600360205260408420828060a01b0388165f5260205260405f2061022189825461104b565b905561022e86825461104b565b81550161023c88825461104b565b90557f00000000000000000000000000000000000000000000000000000000000000006001600160a01b0316803b156103925760405183818061029089637921219560e11b97888452303360048601611018565b038183865af19081156103aa578491610396575b5050803b15610392576102cb93838993604051968795869485938452303360048601611018565b03925af180156103875761036f575b506060945060243560043510156103695792905b604080516004358152602435602082015290810185905260608101839052608081018490526001600160a01b0391909116907f0103e5727ee41ce8741fbdf27e5e596deb21dbe5ae93901499306d10f28d1ef79060a090a260015f8051602061135e8339815191525560405192835260208301526040820152f35b906102ee565b6103798691610fb2565b610383575f6102da565b8480fd5b6040513d88823e3d90fd5b8280fd5b61039f90610fb2565b61039257825f6102a4565b6040513d86823e3d90fd5b634e487b7160e01b89526011600452602489fd5b604051633489be7560e21b8152600490fd5b91906103f26103ea8487610fc6565b825490610fed565b61040a6103ff858b610fc6565b600184015490610fed565b808210156104345750905b819782156103c95761042a6001938c9661104b565b60028301556101fa565b905090610415565b6040516371ac979160e11b8152600490fd5b5f80fd5b80fd5b50346104525760a03660031901126104525761046f610f21565b50610478610f0b565b5060843567ffffffffffffffff81116104ad57610499903690600401610f84565b505060405163f23a6e6160e01b8152602090f35b5080fd5b503461045257806003193601126104525760206040517f65d7a28e3265b37a6474929f336521b332c1681b933f6cb9f3376673440d862a8152f35b50346104525780600319360112610452576040517f00000000000000000000000000000000000000000000000000000000000000006001600160a01b03168152602090f35b610f37565b503461045257604036600319011261045257610573600435610556610f0b565b908084528360205261056e60016040862001546110d1565b61116e565b5080f35b5034610452576040366003190112610452576040610593610f0b565b9160043581526003602052209060018060a01b03165f52602052602060405f2054604051908152f35b50346104525760c036600319011261045257604435906024356004356084356001600160a01b03808216820361044e576105f461123c565b6105fc61126b565b60a435421161043c57851561089b5761061584846111e0565b85526002602052604085206002810154156108895784841095861561087e578154935b8715610876576001830154935b6103e58a026103e4198b820401610862576106608682610fc6565b906103e880890290898204148915171561084e5761068892916106829161104b565b90610fed565b986064358a1061083c57858a101561083c5715610819576106aa8a855461104b565b8455600184016106bb8a825461100b565b90555b7f00000000000000000000000000000000000000000000000000000000000000001690813b1561039257604051637921219560e11b8082529084818061070a8f8d303360048601611018565b038183885af1801561080e579085916107fa575b5050823b156107f65789928492838b936107476040519788968795869485523060048601611018565b03925af180156107eb576107d7575b50509061076d826001610773945491015490610fc6565b92610fc6565b116107c55760209360405190815283858201527fb07a338b8be71718b8ce70f02ec5a009fbb8264a705e93f98fb939f7cef697cd60403392a460015f8051602061135e83398151915255604051908152f35b60405163a1e0481560e01b8152600490fd5b6107e18291610fb2565b6104525780610756565b6040513d84823e3d90fd5b8380fd5b61080390610fb2565b6107f657835f61071e565b6040513d87823e3d90fd5b600184016108288b825461104b565b905561083589855461100b565b84556106be565b6040516342301c2360e01b8152600490fd5b634e487b7160e01b86526011600452602486fd5b634e487b7160e01b84526011600452602484fd5b825493610645565b600182015493610638565b6040516302721e1f60e61b8152600490fd5b60405163098fb56160e01b8152600490fd5b50346104525760a0366003190112610452576108c7610f21565b506108d0610f0b565b5067ffffffffffffffff604435818111610392576108f2903690600401610f53565b50506064358181116103925761090c903690600401610f53565b50506084359081116104ad57610926903690600401610f84565b505060405163bc197c8160e01b8152602090f35b503461044e5760e036600319011261044e576044356001600160a01b0360043560843560243560a435606435858216820361044e5761097761123c565b61097f61126b565b60c435421161043c5761099283866111e0565b95865f526020966002885260405f20936002850192835495861561088957835f5260038b5260405f20335f528b528b60405f205410610be857806109f66109e5898f946109e0905486610fc6565b610fed565b986109e06001840194855490610fc6565b9988158015610c00575b610be857898c10978815610bfa575b8910610be8578a10610be8578b958d8c8915610bda5790610a5591988c985b5f526003815260405f2090335f525260405f20610a4c82825461100b565b9055825461100b565b9055610a6288825461100b565b9055610a6f89825461100b565b90557f00000000000000000000000000000000000000000000000000000000000000001690813b1561044e576040515f8180610abc8a637921219560e11b998a8452873060048601611018565b038183875af18015610bcf57610bb8575b50908b9291813b156107f657838995610af56040519788968795869485523060048601611018565b03925af18015610bad57610b95575b5060409750610b6d969594937f04f7e4f53152cb2cd0e424b2fc990199f0ed4255c7a97a848131f1eeff165f7b939092909115610b8b57968792965b878a519485943398869192608093969594919660a084019784526020840152604083015260608201520152565b0390a260015f8051602061135e833981519152558351928352820152f35b9196879296610b40565b610b9f8991610fb2565b610ba9575f610b04565b8780fd5b6040513d8b823e3d90fd5b610bc59193929c50610fb2565b5f9a90915f610acd565b6040513d5f823e3d90fd5b9790610a55918c9998610a2e565b60405163749383ad60e01b8152600490fd5b90610a0f565b508a15610a00565b3461044e575f36600319011261044e5760206040515f8152f35b3461044e57604036600319011261044e57610c3b610f0b565b6004355f525f60205260405f209060018060a01b03165f52602052602060ff60405f2054166040519015158152f35b3461044e57604036600319011261044e57610c896024356004356111e0565b5f52600260205260405f20604051606081019181831067ffffffffffffffff841117610cda576040928352805491828152836002600184015493846020850152015491015282519182526020820152f35b634e487b7160e01b5f52604160045260245ffd5b3461044e575f36600319011261044e57602060ff600154166040519015158152f35b3461044e575f36600319011261044e5760206040516103e58152f35b3461044e575f36600319011261044e57610d44611058565b610d4c61126b565b600160ff19815416176001557f62e78cea01bee320cd4e420270b5ea74000d11b0c9f74754ebdbfc544b05a2586020604051338152a1005b3461044e57604036600319011261044e57610d9d610f0b565b336001600160a01b03821603610dbb57610db99060043561116e565b005b60405163334bd91960e11b8152600490fd5b3461044e57604036600319011261044e57610db9600435610dec610f0b565b90805f525f602052610e04600160405f2001546110d1565b6110f2565b3461044e57602036600319011261044e576004355f525f6020526020600160405f200154604051908152f35b3461044e575f36600319011261044e57610e4d611058565b60015460ff811615610e8c5760ff19166001557f5db9ee0a495bf2e6ff9c91a7834c1ba4fdd244a5e8aa4e537bd38aeae4b073aa6020604051338152a1005b604051638dfc202b60e01b8152600490fd5b3461044e57602036600319011261044e576004359063ffffffff60e01b821680920361044e57602091630271189760e51b8114908115610ee0575b5015158152f35b637965db0b60e01b811491508115610efa575b5083610ed9565b6301ffc9a760e01b14905083610ef3565b602435906001600160a01b038216820361044e57565b600435906001600160a01b038216820361044e57565b3461044e575f36600319011261044e5760206040516103e88152f35b9181601f8401121561044e5782359167ffffffffffffffff831161044e576020808501948460051b01011161044e57565b9181601f8401121561044e5782359167ffffffffffffffff831161044e576020838186019501011161044e57565b67ffffffffffffffff8111610cda57604052565b81810292918115918404141715610fd957565b634e487b7160e01b5f52601160045260245ffd5b8115610ff7570490565b634e487b7160e01b5f52601260045260245ffd5b91908203918211610fd957565b929060c0949260018060a01b0380921685521660208401526040830152606082015260a060808201525f60a08201520190565b91908201809211610fd957565b335f9081527ff7c9542c591017a21c74b6f3fab6263c7952fc0aaf9db4c22a2a04ddc7f8674f60205260409020547f65d7a28e3265b37a6474929f336521b332c1681b933f6cb9f3376673440d862a9060ff16156110b35750565b6044906040519063e2517d3f60e01b82523360048301526024820152fd5b805f525f60205260405f20335f5260205260ff60405f205416156110b35750565b90815f525f60205260405f209060018060a01b031690815f5260205260ff60405f205416155f1461116857815f525f60205260405f20815f5260205260405f20600160ff1982541617905533917f2f8788117e7eff1d82e926ec794901d17c78024a50270940304540a733656f0d5f80a4600190565b50505f90565b90815f525f60205260405f209060018060a01b031690815f5260205260ff60405f2054165f1461116857815f525f60205260405f20815f5260205260405f2060ff19815416905533917ff6391f5c32d9c69d2a47ea670b442974b53935d1edc7fd64eb21e047a839171b5f80a4600190565b81811461122a578181101561122557905b60405190602082019283526040820152604081526060810181811067ffffffffffffffff821117610cda5760405251902090565b6111f1565b604051630e64079760e01b8152600490fd5b5f8051602061135e83398151915260028154146112595760029055565b604051633ee5aeb560e01b8152600490fd5b60ff6001541661127757565b60405163d93c066560e01b8152600490fd5b95909492949391938087106112a057959493929190565b949290565b90919493600182549201549282158061130a575b611301576112cb836109e08684610fc6565b91878311156112f057505050906109e06112e59286610fc6565b9081106103c9579190565b9350935094505083106103c9579190565b93505050509190565b5083156112b9565b801561135857600181818101808211610fd95760011c91905b8383106113385750505090565b9091925061134f8361134a8184610fed565b61104b565b821c919061132b565b505f9056fe9b779b17422d0df92223018b32b4d1fa46e071723d6817e2486d003becc55f00a164736f6c6343000818000a2f8788117e7eff1d82e926ec794901d17c78024a50270940304540a733656f0dad3228b676f7d3cd4284a5443f17f1962b36e491b30a40b2405849e597ba5fb5",
    "linkReferences": {}
  },
  "methodIdentifiers": {
    "DEFAULT_ADMIN_ROLE()": "a217fddf",
    "FEE_DENOMINATOR()": "d73792a9",
    "FEE_NUMERATOR()": "41cd47bf",
    "MINIMUM_LIQUIDITY()": "ba9a7a56",
    "PAUSER_ROLE()": "e63ab1e9",
    "addLiquidity(uint256,uint256,uint256,uint256,uint256,uint256,address,uint256)": "ff4bd761",
    "gameResources()": "d9bf2002",
    "getPoolReserves(uint256,uint256)": "91cfe6f0",
    "getRoleAdmin(bytes32)": "248a9ca3",
    "grantRole(bytes32,address)": "2f2ff15d",
    "hasRole(bytes32,address)": "91d14854",
    "liquidityBalanceOf(bytes32,address)": "d3e01f38",
    "onERC1155BatchReceived(address,address,uint256[],uint256[],bytes)": "bc197c81",
    "onERC1155Received(address,address,uint256,uint256,bytes)": "f23a6e61",
    "pauseMarketplace()": "3ec62279",
    "paused()": "5c975abb",
    "removeLiquidity(uint256,uint256,uint256,uint256,uint256,address,uint256)": "a58e16d0",
    "renounceRole(bytes32,address)": "36568abe",
    "revokeRole(bytes32,address)": "d547741f",
    "supportsInterface(bytes4)": "01ffc9a7",
    "swapExactInputForOutput(uint256,uint256,uint256,uint256,address,uint256)": "c8eb1ac5",
    "unpauseMarketplace()": "21f67fbb"
  },
  "id": 104
}